:020000040000FA
:100000000C9462000C948A000C948A000C948A0070
:100010000C948A000C948A000C948A000C948A0038
:100020000C948A000C948A000C948A000C948A0028
:100030000C948A000C948A000C948A000C948A0018
:100040000C94F1010C948A000C948A000C948A00A0
:100050000C948A000C948A000C948A000C948A00F8
:100060000C943B020C948A0000000000250028003C
:100070002B0000000000240027002A0000000000E0
:1000800023002600290004040404040404040202DA
:100090000202020203030303030301020408102007
:1000A0004080010204081020010204081020000012
:1000B0000008000201000003040700000000000027
:1000C0000000190511241FBECFEFD8E0DEBFCDBF61
:1000D00011E0A0E0B1E0E4E6FAE002C005900D9284
:1000E000A231B107D9F721E0A2E1B1E001C01D9230
:1000F000A13CB207E1F710E0C2E6D0E004C02197CE
:10010000FE010E942A05C136D107C9F70E945A0391
:100110000C9430050C9400008091B2019091B101D3
:10012000891B990B089508950895833081F028F470
:10013000813099F08230A9F008958730A9F0883095
:10014000C9F08430B1F4809180008F7D03C080912C
:1001500080008F7780938000089584B58F7784BD69
:10016000089584B58F7DFBCF8091B0008F77809309
:10017000B00008958091B0008F7DF9CF1F93CF9389
:10018000DF93282F30E0F901E255FF4F8491F90108
:10019000E656FF4FD491F901EA57FF4FC491CC23A3
:1001A000A9F0162F81110E949500EC2FF0E0EE0FC0
:1001B000FF1FE859FF4FA591B4918FB7F894EC91C8
:1001C000111108C0D095DE23DC938FBFDF91CF9152
:1001D0001F910895DE2BF8CF3FB7F89480915B0113
:1001E00090915C01A0915D01B0915E0126B5A89B44
:1001F00005C02F3F19F00196A11DB11D3FBFBA2FB9
:10020000A92F982F8827BC01CD01620F711D811D78
:10021000911D42E0660F771F881F991F4A95D1F7FD
:10022000089520913301260F3327331F21323105E2
:10023000ECF420918B01FC0190E080E0243069F027
:1002400082E00895A09133012191AC014D5E5E4F93
:10025000A40FB52FB11D2C930196861798F38091AA
:100260003301680F6093330180E0089581E00895C1
:1002700010928B0181E080938A011092850161E0E8
:1002800082E10E94BE0061E083E10E94BE00E9EBD2
:10029000F0E080818E7F808380818D7F808388E401
:1002A0008093B80085E48093BC000895CF93DF93DA
:1002B00091E0909312018823B9F0C091B800D091D9
:1002C000BA008091BC008A7B8093BC0060E082E130
:1002D0000E94BE0060E083E10E94BE000E943801DF
:1002E000D093BA00C093B800DF91CF9108950895DC
:1002F000E091B1018091B201E81730F4F0E0EF56DF
:10030000FE4F808190E008958FEF9FEF08959091C8
:10031000B1018091B2012FEF3FEF981748F4E92F18
:10032000F0E0EF56FE4F208130E09F5F9093B101E7
:10033000C9010895CF93DF93CB01EA01642F0E9496
:100340001101CE01DF91CF910895CF93DF931F92DA
:10035000CDB7DEB7698361E0CE0101960E9411013D
:1003600081E090E00F90DF91CF91089590E080E0E0
:10037000089585ED8093BC0080918D0190918E0150
:10038000A0918F01B09190010796A11DB11D23E0AE
:10039000B695A795979587952A95D1F72091BC009A
:1003A00024FD03C010928B01089540918D0150915E
:1003B0008E0160918F0170919001452B462B472B48
:1003C00069F30097A105B10541F025E32A95F1F7FE
:1003D00000000197A109B109E1CF80918C010C9433
:1003E00056011F920F920FB60F9211242F933F9335
:1003F0008F939F93AF93BF93809157019091580132
:10040000A0915901B0915A013091560123E0230F78
:100410002D3758F50196A11DB11D209356018093EB
:10042000570190935801A0935901B0935A018091BC
:100430005B0190915C01A0915D01B0915E0101961C
:10044000A11DB11D80935B0190935C01A0935D01A0
:10045000B0935E01BF91AF919F918F913F912F918A
:100460000F900FBE0F901F90189526E8230F02964D
:10047000A11DB11DD2CF1F920F920FB60F92112462
:100480002F933F934F935F936F937F938F939F939C
:10049000AF93BF93EF93FF938091B900887F80362D
:1004A00009F44AC0F0F5883209F4A7C018F5803184
:1004B00009F49BC0B8F4882309F4F9C0883009F422
:1004C00094C0FF91EF91BF91AF919F918F917F91D8
:1004D0006F915F914F913F912F910F900FBE0F90B1
:1004E0001F901895883109F488C0803251F78093A5
:1004F000890114C0803409F49DC040F48033B9F3FD
:100500008833F9F68093890185ECB0C0803509F411
:1005100085C0883509F496C0883499F60E94B901DF
:10052000D0CF883909F48CC038F5883729F050F4D9
:10053000883611F0803729F683E080938B01109282
:10054000550157C0883809F47BC0803919F08038CC
:1005500009F0B7CF80915501803208F071C0E09169
:10056000550181E08E0F809355018091BB00F0E032
:10057000EB5CFE4F80833DC0803B39F0E0F4803A75
:1005800009F479C0883A09F09CCF84E080938B010C
:100590001092340110923301E0916101F0916201F7
:1005A00009958091330181110FC081E0809333015F
:1005B0001092130109C0803C09F4A6CF883C09F4CD
:1005C000A3CF883B09F07DCFE091340181E08E0F0D
:1005D00080933401F0E0ED5EFE4F80818093BB009C
:1005E000909134018091330129C0809186018093DC
:1005F000BB0085EC8093BC0064CF90918801809112
:100600008701981758F5E091880181E08E0F80935B
:100610008801F0E0EB59FE4F8081E9CFE09188013D
:1006200081E08E0F809388018091BB00F0E0EB5950
:10063000FE4F808390918801809187019817C8F2BE
:1006400085E8D8CFE091880181E08E0F8093880102
:100650008091BB00F0E0EB59FE4F808380918A01CE
:1006600081115CCF81E08093850184EA8093BC0096
:1006700010928B0126CF85EC8093BC0010928B01E9
:1006800080915501803230F4E0915501F0E0EB5C4F
:10069000FE4F10826091550170E0E0915F01F09192
:1006A000600185E391E00995109255010ACF1092FF
:1006B000890134CF789484B5826084BD84B581602B
:1006C00084BD85B5826085BD85B5816085BD80911D
:1006D0006E00816080936E00109281008091810095
:1006E000826080938100809181008160809381008D
:1006F000809180008160809380008091B10084604F
:100700008093B1008091B00081608093B0008091AF
:100710007A00846080937A0080917A00826080936E
:100720007A0080917A00816080937A0080917A00CB
:10073000806880937A001092C1001092B1011092EB
:10074000B20110926401109263010E94380183E9A2
:1007500090E0909362018093610184E990E090932E
:10076000600180935F01E2EAF0E02491EEE8F0E0BE
:100770008491882399F090E0880F991FFC01EE582E
:10078000FF4FA591B491FC01E859FF4F85919491D9
:100790008FB7F894EC91E22BEC938FBF8091C0015E
:1007A00090E0FC01E656FF4F24918A579F4FFC01D1
:1007B00084918823C1F090E0880F991FFC01EE58C6
:1007C000FF4FC591D491FC01E859FF4FA591B49119
:1007D0009FB7F8948881E22FE0958E2388838C91CF
:1007E000E823EC939FBF30EB832E30E0932ECCE9CF
:1007F000D0E008E810E040E0A42E40E0B42E33241E
:10080000339425EC222EF4018491FE01F490F8013A
:10081000E490EE2079F081110E949500EE2DF0E039
:10082000EE0FFF1FE458FF4FA591B4918C91F82271
:1008300081E009F480E08093C0018111EAC00E9448
:10084000EC006B017C0180918B01811163C03092BF
:100850008B0130928A01FFEFF09389011092880199
:100860001092870130928601809186018067809383
:10087000860180918501813009F081C01092850147
:100880000E94EC006B017C01809186018093BB008B
:1008900080918D0190918E01A0918F01B091900176
:1008A000892B8A2B8B2BA1F00E94EC0040908D01AC
:1008B00050908E0160908F01709090016C197D09AD
:1008C0008E099F09461657066806790608F443C044
:1008D0008091BC0083FDD8CF2092BC000E94EC0028
:1008E0006B017C0180918B01813009F44CC08091B7
:1008F0008801FF24F394811102C0F0908801A5E6DD
:10090000B1E0E1E9F1E080E08F1551F19D91919323
:100910008F5FFACF80918D0190918E01A0918F0110
:10092000B0919001892B8A2B8B2B09F48CCF0E94DC
:10093000EC0040908D0150908E0160908F0170907E
:1009400090016C197D098E099F09461657066806A5
:10095000790608F078CF80918C010E945601F12C25
:100960001092B101F092B2018091B101F81669F1D3
:1009700083EB91E00E9487018093BF01F5CF25EEC4
:100980002093BC00ABCF80918D0190918E01A091FE
:100990008F01B0919001892B8A2B8B2B09F4A2CF68
:1009A0000E94EC0040908D0150908E0160908F016C
:1009B000709090016C197D098E099F0946165706A3
:1009C0006806790608F08ECFC6CF0E94EC002B0196
:1009D0003C0184E6C82ED12CE12CF12C0E94EC00C5
:1009E0006419750986099709683E73408105910568
:1009F000A8F381E0C81AD108E108F108E8EE4E0E2C
:100A0000E3E05E1E611C711CC114D104E104F10419
:100A100029F78091BF0161E08F3109F060E088E043
:100A20000E94BE00A114B10409F4EDCE0E940000A2
:100A3000E8CEE3EBF1E01382128288EE93E0A0E0CF
:100A4000B0E084839583A683B78384E091E09183AB
:100A500080830895EE0FFF1F0590F491E02D099417
:100A6000F894FFCF00000000A5019A01B6017701BC
:060A70008C0087017801F3
:107E0000112484B714BE81FFF0D085E080938100F7
:107E100082E08093C00088E18093C10086E0809377
:107E2000C20080E18093C4008EE0C9D0259A86E02C
:107E300020E33CEF91E0309385002093840096BBD3
:107E4000B09BFECF1D9AA8958150A9F7CC24DD24C4
:107E500088248394B5E0AB2EA1E19A2EF3E0BF2EE7
:107E6000A2D0813461F49FD0082FAFD0023811F036
:107E7000013811F484E001C083E08DD089C08234E0
:107E800011F484E103C0853419F485E0A6D080C0E4
:107E9000853579F488D0E82EFF2485D0082F10E0AE
:107EA000102F00270E291F29000F111F8ED06801E7
:107EB0006FC0863521F484E090D080E0DECF843638
:107EC00009F040C070D06FD0082F6DD080E0C81688
:107ED00080E7D80618F4F601B7BEE895C0E0D1E017
:107EE00062D089930C17E1F7F0E0CF16F0E7DF06D8
:107EF00018F0F601B7BEE89568D007B600FCFDCFD4
:107F0000A601A0E0B1E02C9130E011968C91119780
:107F100090E0982F8827822B932B1296FA010C0160
:107F200087BEE89511244E5F5F4FF1E0A038BF0790
:107F300051F7F601A7BEE89507B600FCFDCF97BE46
:107F4000E89526C08437B1F42ED02DD0F82E2BD052
:107F50003CD0F601EF2C8F010F5F1F4F84911BD097
:107F6000EA94F801C1F70894C11CD11CFA94CF0C13
:107F7000D11C0EC0853739F428D08EE10CD085E9AC
:107F80000AD08FE07ACF813511F488E018D01DD067
:107F900080E101D065CF982F8091C00085FFFCCF94
:107FA0009093C60008958091C00087FFFCCF809118
:107FB000C00084FD01C0A8958091C6000895E0E648
:107FC000F0E098E1908380830895EDDF803219F02E
:107FD00088E0F5DFFFCF84E1DECF1F93182FE3DFCA
:107FE0001150E9F7F2DF1F91089580E0E8DFEE27F6
:047FF000FF270994CA
:027FFE00040479
:00000001FF
